{
  "_format": "hh-sol-artifact-1",
  "contractName": "Raffle",
  "sourceName": "contracts/Raffle.sol",
  "abi": [
    {
      "inputs": [
        {
          "internalType": "address",
          "name": "vrfCoordinatorV2",
          "type": "address"
        },
        {
          "internalType": "uint256",
          "name": "_entranceFee",
          "type": "uint256"
        },
        {
          "internalType": "bytes32",
          "name": "gasLane",
          "type": "bytes32"
        },
        {
          "internalType": "uint64",
          "name": "subscriptionId",
          "type": "uint64"
        },
        {
          "internalType": "uint32",
          "name": "callbackGasLimit",
          "type": "uint32"
        },
        {
          "internalType": "uint256",
          "name": "interval",
          "type": "uint256"
        }
      ],
      "stateMutability": "nonpayable",
      "type": "constructor"
    },
    {
      "inputs": [
        {
          "internalType": "address",
          "name": "have",
          "type": "address"
        },
        {
          "internalType": "address",
          "name": "want",
          "type": "address"
        }
      ],
      "name": "OnlyCoordinatorCanFulfill",
      "type": "error"
    },
    {
      "inputs": [],
      "name": "Raffle__NotEnoughEthEntered",
      "type": "error"
    },
    {
      "inputs": [],
      "name": "Raffle__NotOpen",
      "type": "error"
    },
    {
      "inputs": [],
      "name": "Raffle__TransferFailed",
      "type": "error"
    },
    {
      "inputs": [
        {
          "internalType": "uint256",
          "name": "currentBalance",
          "type": "uint256"
        },
        {
          "internalType": "uint256",
          "name": "numPlayers",
          "type": "uint256"
        },
        {
          "internalType": "uint256",
          "name": "raffleState",
          "type": "uint256"
        }
      ],
      "name": "Raffle__UpkeepNotNeeded",
      "type": "error"
    },
    {
      "anonymous": false,
      "inputs": [
        {
          "indexed": true,
          "internalType": "uint256",
          "name": "requestId",
          "type": "uint256"
        }
      ],
      "name": "RequestRaffleWinner",
      "type": "event"
    },
    {
      "anonymous": false,
      "inputs": [
        {
          "indexed": true,
          "internalType": "address",
          "name": "player",
          "type": "address"
        }
      ],
      "name": "WinnerPicked",
      "type": "event"
    },
    {
      "anonymous": false,
      "inputs": [
        {
          "indexed": true,
          "internalType": "address",
          "name": "player",
          "type": "address"
        }
      ],
      "name": "raffleEnter",
      "type": "event"
    },
    {
      "inputs": [
        {
          "internalType": "bytes",
          "name": "",
          "type": "bytes"
        }
      ],
      "name": "checkUpkeep",
      "outputs": [
        {
          "internalType": "bool",
          "name": "upKeepNeeded",
          "type": "bool"
        },
        {
          "internalType": "bytes",
          "name": "",
          "type": "bytes"
        }
      ],
      "stateMutability": "view",
      "type": "function"
    },
    {
      "inputs": [],
      "name": "enterRaffle",
      "outputs": [],
      "stateMutability": "payable",
      "type": "function"
    },
    {
      "inputs": [],
      "name": "getEntranceFee",
      "outputs": [
        {
          "internalType": "uint256",
          "name": "",
          "type": "uint256"
        }
      ],
      "stateMutability": "view",
      "type": "function"
    },
    {
      "inputs": [],
      "name": "getLatestTimeStamp",
      "outputs": [
        {
          "internalType": "uint256",
          "name": "",
          "type": "uint256"
        }
      ],
      "stateMutability": "view",
      "type": "function"
    },
    {
      "inputs": [],
      "name": "getNumWords",
      "outputs": [
        {
          "internalType": "uint256",
          "name": "",
          "type": "uint256"
        }
      ],
      "stateMutability": "pure",
      "type": "function"
    },
    {
      "inputs": [],
      "name": "getNumberOfPlayers",
      "outputs": [
        {
          "internalType": "uint256",
          "name": "",
          "type": "uint256"
        }
      ],
      "stateMutability": "view",
      "type": "function"
    },
    {
      "inputs": [
        {
          "internalType": "uint256",
          "name": "index",
          "type": "uint256"
        }
      ],
      "name": "getPlayer",
      "outputs": [
        {
          "internalType": "address",
          "name": "",
          "type": "address"
        }
      ],
      "stateMutability": "view",
      "type": "function"
    },
    {
      "inputs": [],
      "name": "getRaffleState",
      "outputs": [
        {
          "internalType": "enum Raffle.RaffleState",
          "name": "",
          "type": "uint8"
        }
      ],
      "stateMutability": "view",
      "type": "function"
    },
    {
      "inputs": [],
      "name": "getRecentWinner",
      "outputs": [
        {
          "internalType": "address",
          "name": "",
          "type": "address"
        }
      ],
      "stateMutability": "view",
      "type": "function"
    },
    {
      "inputs": [],
      "name": "getRequestConfirmations",
      "outputs": [
        {
          "internalType": "uint256",
          "name": "",
          "type": "uint256"
        }
      ],
      "stateMutability": "pure",
      "type": "function"
    },
    {
      "inputs": [
        {
          "internalType": "bytes",
          "name": "",
          "type": "bytes"
        }
      ],
      "name": "performUpkeep",
      "outputs": [],
      "stateMutability": "nonpayable",
      "type": "function"
    },
    {
      "inputs": [
        {
          "internalType": "uint256",
          "name": "requestId",
          "type": "uint256"
        },
        {
          "internalType": "uint256[]",
          "name": "randomWords",
          "type": "uint256[]"
        }
      ],
      "name": "rawFulfillRandomWords",
      "outputs": [],
      "stateMutability": "nonpayable",
      "type": "function"
    }
  ],
  "bytecode": "0x6101606040523480156200001257600080fd5b50604051620017c7380380620017c7833981810160405281019062000038919062000294565b858073ffffffffffffffffffffffffffffffffffffffff1660808173ffffffffffffffffffffffffffffffffffffffff1681525050508460a081815250508573ffffffffffffffffffffffffffffffffffffffff1660c08173ffffffffffffffffffffffffffffffffffffffff16815250508360e081815250508267ffffffffffffffff166101008167ffffffffffffffff16815250508163ffffffff166101208163ffffffff16815250506000600160006101000a81548160ff021916908360018111156200010d576200010c62000330565b5b0217905550426002819055508061014081815250505050505050506200035f565b600080fd5b600073ffffffffffffffffffffffffffffffffffffffff82169050919050565b6000620001608262000133565b9050919050565b620001728162000153565b81146200017e57600080fd5b50565b600081519050620001928162000167565b92915050565b6000819050919050565b620001ad8162000198565b8114620001b957600080fd5b50565b600081519050620001cd81620001a2565b92915050565b6000819050919050565b620001e881620001d3565b8114620001f457600080fd5b50565b6000815190506200020881620001dd565b92915050565b600067ffffffffffffffff82169050919050565b6200022d816200020e565b81146200023957600080fd5b50565b6000815190506200024d8162000222565b92915050565b600063ffffffff82169050919050565b6200026e8162000253565b81146200027a57600080fd5b50565b6000815190506200028e8162000263565b92915050565b60008060008060008060c08789031215620002b457620002b36200012e565b5b6000620002c489828a0162000181565b9650506020620002d789828a01620001bc565b9550506040620002ea89828a01620001f7565b9450506060620002fd89828a016200023c565b93505060806200031089828a016200027d565b92505060a06200032389828a01620001bc565b9150509295509295509295565b7f4e487b7100000000000000000000000000000000000000000000000000000000600052602160045260246000fd5b60805160a05160c05160e0516101005161012051610140516113ff620003c860003960006107a00152600061065f0152600061063c0152600061061b015260006105df0152600081816102b401526103b10152600081816102f1015261034501526113ff6000f3fe6080604052600436106100a75760003560e01c8063473f1ddc11610064578063473f1ddc1461018957806353a2c19a146101b45780635f1b0fd8146101df5780636e04ff0d1461020a578063e55ae4e814610248578063fd6673f514610285576100a7565b806309bc33a7146100ac578063115cbaf5146100d75780631fe543e3146101025780632cfcc5391461012b578063320229eb146101355780634585e33b14610160575b600080fd5b3480156100b857600080fd5b506100c16102b0565b6040516100ce9190610b89565b60405180910390f35b3480156100e357600080fd5b506100ec6102d8565b6040516100f99190610c1b565b60405180910390f35b34801561010e57600080fd5b5061012960048036038101906101249190610dcf565b6102ef565b005b6101336103af565b005b34801561014157600080fd5b5061014a61051e565b6040516101579190610b89565b60405180910390f35b34801561016c57600080fd5b5061018760048036038101906101829190610e86565b610528565b005b34801561019557600080fd5b5061019e610718565b6040516101ab9190610f14565b60405180910390f35b3480156101c057600080fd5b506101c9610742565b6040516101d69190610b89565b60405180910390f35b3480156101eb57600080fd5b506101f4610751565b6040516102019190610b89565b60405180910390f35b34801561021657600080fd5b50610231600480360381019061022c9190610fe4565b61075e565b60405161023f9291906110c7565b60405180910390f35b34801561025457600080fd5b5061026f600480360381019061026a91906110f7565b610845565b60405161027c9190610f14565b60405180910390f35b34801561029157600080fd5b5061029a61088c565b6040516102a79190610b89565b60405180910390f35b60007f0000000000000000000000000000000000000000000000000000000000000000905090565b6000600160009054906101000a900460ff16905090565b7f000000000000000000000000000000000000000000000000000000000000000073ffffffffffffffffffffffffffffffffffffffff163373ffffffffffffffffffffffffffffffffffffffff16146103a157337f00000000000000000000000000000000000000000000000000000000000000006040517f1cf993f4000000000000000000000000000000000000000000000000000000008152600401610398929190611124565b60405180910390fd5b6103ab8282610898565b5050565b7f0000000000000000000000000000000000000000000000000000000000000000341015610409576040517f066d781f00000000000000000000000000000000000000000000000000000000815260040160405180910390fd5b6000600181111561041d5761041c610ba4565b5b600160009054906101000a900460ff16600181111561043f5761043e610ba4565b5b14610476576040517f1425571c00000000000000000000000000000000000000000000000000000000815260040160405180910390fd5b6000339080600181540180825580915050600190039060005260206000200160009091909190916101000a81548173ffffffffffffffffffffffffffffffffffffffff021916908373ffffffffffffffffffffffffffffffffffffffff1602179055503373ffffffffffffffffffffffffffffffffffffffff167f742d070bf0f3edace132a9da8ba725e8cf99c478869cee7f673ed6085e2f8e6460405160405180910390a2565b6000600254905090565b60006105426040518060200160405280600081525061075e565b509050806105b15747600080549050600160009054906101000a900460ff16600181111561057357610572610ba4565b5b6040517f584327aa0000000000000000000000000000000000000000000000000000000081526004016105a89392919061114d565b60405180910390fd5b60018060006101000a81548160ff021916908360018111156105d6576105d5610ba4565b5b021790555060007f000000000000000000000000000000000000000000000000000000000000000073ffffffffffffffffffffffffffffffffffffffff16635d3b1d307f00000000000000000000000000000000000000000000000000000000000000007f000000000000000000000000000000000000000000000000000000000000000060037f000000000000000000000000000000000000000000000000000000000000000060016040518663ffffffff1660e01b81526004016106a09594939291906111fc565b6020604051808303816000875af11580156106bf573d6000803e3d6000fd5b505050506040513d601f19601f820116820180604052508101906106e39190611264565b9050807fde6349b018d6c03d837b67d9a198a6ba4842546f2295fe963fae141e5dbaef8160405160405180910390a250505050565b6000600360009054906101000a900473ffffffffffffffffffffffffffffffffffffffff16905090565b6000600163ffffffff16905090565b6000600361ffff16905090565b60006060600080600181111561077757610776610ba4565b5b600160009054906101000a900460ff16600181111561079957610798610ba4565b5b14905060007f0000000000000000000000000000000000000000000000000000000000000000600254426107cd91906112c0565b119050600080600080549050119050600080471190508380156107ed5750825b80156107f65750815b80156107ff5750805b9550856040518060400160405280600381526020017f30783000000000000000000000000000000000000000000000000000000000008152509550955050505050915091565b600080828154811061085a576108596112f4565b5b9060005260206000200160009054906101000a900473ffffffffffffffffffffffffffffffffffffffff169050919050565b60008080549050905090565b60008080549050826000815181106108b3576108b26112f4565b5b60200260200101516108c59190611352565b905060008082815481106108dc576108db6112f4565b5b9060005260206000200160009054906101000a900473ffffffffffffffffffffffffffffffffffffffff16905080600360006101000a81548173ffffffffffffffffffffffffffffffffffffffff021916908373ffffffffffffffffffffffffffffffffffffffff1602179055506000600160006101000a81548160ff021916908360018111156109705761096f610ba4565b5b0217905550600067ffffffffffffffff8111156109905761098f610c8c565b5b6040519080825280602002602001820160405280156109be5781602001602082028036833780820191505090505b50600090805190602001906109d4929190610ac9565b504260028190555060008173ffffffffffffffffffffffffffffffffffffffff1647604051610a02906113b4565b60006040518083038185875af1925050503d8060008114610a3f576040519150601f19603f3d011682016040523d82523d6000602084013e610a44565b606091505b5050905080610a7f576040517fa1d04b3900000000000000000000000000000000000000000000000000000000815260040160405180910390fd5b8173ffffffffffffffffffffffffffffffffffffffff167f5b690ec4a06fe979403046eaeea5b3ce38524683c3001f662c8b5a829632f7df60405160405180910390a25050505050565b828054828255906000526020600020908101928215610b42579160200282015b82811115610b415782518260006101000a81548173ffffffffffffffffffffffffffffffffffffffff021916908373ffffffffffffffffffffffffffffffffffffffff16021790555091602001919060010190610ae9565b5b509050610b4f9190610b53565b5090565b5b80821115610b6c576000816000905550600101610b54565b5090565b6000819050919050565b610b8381610b70565b82525050565b6000602082019050610b9e6000830184610b7a565b92915050565b7f4e487b7100000000000000000000000000000000000000000000000000000000600052602160045260246000fd5b60028110610be457610be3610ba4565b5b50565b6000819050610bf582610bd3565b919050565b6000610c0582610be7565b9050919050565b610c1581610bfa565b82525050565b6000602082019050610c306000830184610c0c565b92915050565b6000604051905090565b600080fd5b600080fd5b610c5381610b70565b8114610c5e57600080fd5b50565b600081359050610c7081610c4a565b92915050565b600080fd5b6000601f19601f8301169050919050565b7f4e487b7100000000000000000000000000000000000000000000000000000000600052604160045260246000fd5b610cc482610c7b565b810181811067ffffffffffffffff82111715610ce357610ce2610c8c565b5b80604052505050565b6000610cf6610c36565b9050610d028282610cbb565b919050565b600067ffffffffffffffff821115610d2257610d21610c8c565b5b602082029050602081019050919050565b600080fd5b6000610d4b610d4684610d07565b610cec565b90508083825260208201905060208402830185811115610d6e57610d6d610d33565b5b835b81811015610d975780610d838882610c61565b845260208401935050602081019050610d70565b5050509392505050565b600082601f830112610db657610db5610c76565b5b8135610dc6848260208601610d38565b91505092915050565b60008060408385031215610de657610de5610c40565b5b6000610df485828601610c61565b925050602083013567ffffffffffffffff811115610e1557610e14610c45565b5b610e2185828601610da1565b9150509250929050565b600080fd5b60008083601f840112610e4657610e45610c76565b5b8235905067ffffffffffffffff811115610e6357610e62610e2b565b5b602083019150836001820283011115610e7f57610e7e610d33565b5b9250929050565b60008060208385031215610e9d57610e9c610c40565b5b600083013567ffffffffffffffff811115610ebb57610eba610c45565b5b610ec785828601610e30565b92509250509250929050565b600073ffffffffffffffffffffffffffffffffffffffff82169050919050565b6000610efe82610ed3565b9050919050565b610f0e81610ef3565b82525050565b6000602082019050610f296000830184610f05565b92915050565b600080fd5b600067ffffffffffffffff821115610f4f57610f4e610c8c565b5b610f5882610c7b565b9050602081019050919050565b82818337600083830152505050565b6000610f87610f8284610f34565b610cec565b905082815260208101848484011115610fa357610fa2610f2f565b5b610fae848285610f65565b509392505050565b600082601f830112610fcb57610fca610c76565b5b8135610fdb848260208601610f74565b91505092915050565b600060208284031215610ffa57610ff9610c40565b5b600082013567ffffffffffffffff81111561101857611017610c45565b5b61102484828501610fb6565b91505092915050565b60008115159050919050565b6110428161102d565b82525050565b600081519050919050565b600082825260208201905092915050565b60005b83811015611082578082015181840152602081019050611067565b60008484015250505050565b600061109982611048565b6110a38185611053565b93506110b3818560208601611064565b6110bc81610c7b565b840191505092915050565b60006040820190506110dc6000830185611039565b81810360208301526110ee818461108e565b90509392505050565b60006020828403121561110d5761110c610c40565b5b600061111b84828501610c61565b91505092915050565b60006040820190506111396000830185610f05565b6111466020830184610f05565b9392505050565b60006060820190506111626000830186610b7a565b61116f6020830185610b7a565b61117c6040830184610b7a565b949350505050565b6000819050919050565b61119781611184565b82525050565b600067ffffffffffffffff82169050919050565b6111ba8161119d565b82525050565b600061ffff82169050919050565b6111d7816111c0565b82525050565b600063ffffffff82169050919050565b6111f6816111dd565b82525050565b600060a082019050611211600083018861118e565b61121e60208301876111b1565b61122b60408301866111ce565b61123860608301856111ed565b61124560808301846111ed565b9695505050505050565b60008151905061125e81610c4a565b92915050565b60006020828403121561127a57611279610c40565b5b60006112888482850161124f565b91505092915050565b7f4e487b7100000000000000000000000000000000000000000000000000000000600052601160045260246000fd5b60006112cb82610b70565b91506112d683610b70565b92508282039050818111156112ee576112ed611291565b5b92915050565b7f4e487b7100000000000000000000000000000000000000000000000000000000600052603260045260246000fd5b7f4e487b7100000000000000000000000000000000000000000000000000000000600052601260045260246000fd5b600061135d82610b70565b915061136883610b70565b92508261137857611377611323565b5b828206905092915050565b600081905092915050565b50565b600061139e600083611383565b91506113a98261138e565b600082019050919050565b60006113bf82611391565b915081905091905056fea26469706673582212200269a33e882b129f565fc41e8f04fc440fda8c012f489f37834d5039b006094f64736f6c63430008110033",
  "linkReferences": {},
  "deployedLinkReferences": {}
}