{
  "_format": "hh-sol-artifact-1",
  "contractName": "Raffle",
  "sourceName": "contracts/Raffle.sol",
  "abi": [
    {
      "inputs": [
        {
          "internalType": "address",
          "name": "vrfCoordinatorV2",
          "type": "address"
        },
        {
          "internalType": "uint256",
          "name": "_entranceFee",
          "type": "uint256"
        },
        {
          "internalType": "bytes32",
          "name": "gasLane",
          "type": "bytes32"
        },
        {
          "internalType": "uint64",
          "name": "subscriptionId",
          "type": "uint64"
        },
        {
          "internalType": "uint32",
          "name": "callbackGasLimit",
          "type": "uint32"
        },
        {
          "internalType": "uint256",
          "name": "interval",
          "type": "uint256"
        }
      ],
      "stateMutability": "nonpayable",
      "type": "constructor"
    },
    {
      "inputs": [
        {
          "internalType": "address",
          "name": "have",
          "type": "address"
        },
        {
          "internalType": "address",
          "name": "want",
          "type": "address"
        }
      ],
      "name": "OnlyCoordinatorCanFulfill",
      "type": "error"
    },
    {
      "inputs": [],
      "name": "Raffle__NotEnoughEthEntered",
      "type": "error"
    },
    {
      "inputs": [],
      "name": "Raffle__NotOpen",
      "type": "error"
    },
    {
      "inputs": [],
      "name": "Raffle__TransferFailed",
      "type": "error"
    },
    {
      "inputs": [
        {
          "internalType": "uint256",
          "name": "currentBalance",
          "type": "uint256"
        },
        {
          "internalType": "uint256",
          "name": "numPlayers",
          "type": "uint256"
        },
        {
          "internalType": "uint256",
          "name": "raffleState",
          "type": "uint256"
        }
      ],
      "name": "Raffle__UpkeepNotNeeded",
      "type": "error"
    },
    {
      "anonymous": false,
      "inputs": [
        {
          "indexed": true,
          "internalType": "uint256",
          "name": "requestId",
          "type": "uint256"
        }
      ],
      "name": "RequestRaffleWinner",
      "type": "event"
    },
    {
      "anonymous": false,
      "inputs": [
        {
          "indexed": true,
          "internalType": "address",
          "name": "player",
          "type": "address"
        }
      ],
      "name": "WinnerPicked",
      "type": "event"
    },
    {
      "anonymous": false,
      "inputs": [
        {
          "indexed": true,
          "internalType": "address",
          "name": "player",
          "type": "address"
        }
      ],
      "name": "raffleEnter",
      "type": "event"
    },
    {
      "inputs": [
        {
          "internalType": "bytes",
          "name": "",
          "type": "bytes"
        }
      ],
      "name": "checkUpkeep",
      "outputs": [
        {
          "internalType": "bool",
          "name": "upKeepNeeded",
          "type": "bool"
        },
        {
          "internalType": "bytes",
          "name": "",
          "type": "bytes"
        }
      ],
      "stateMutability": "view",
      "type": "function"
    },
    {
      "inputs": [],
      "name": "enterRaffle",
      "outputs": [],
      "stateMutability": "payable",
      "type": "function"
    },
    {
      "inputs": [],
      "name": "getEntranceFee",
      "outputs": [
        {
          "internalType": "uint256",
          "name": "",
          "type": "uint256"
        }
      ],
      "stateMutability": "view",
      "type": "function"
    },
    {
      "inputs": [],
      "name": "getLatestTimeStamp",
      "outputs": [
        {
          "internalType": "uint256",
          "name": "",
          "type": "uint256"
        }
      ],
      "stateMutability": "view",
      "type": "function"
    },
    {
      "inputs": [],
      "name": "getNumWords",
      "outputs": [
        {
          "internalType": "uint256",
          "name": "",
          "type": "uint256"
        }
      ],
      "stateMutability": "pure",
      "type": "function"
    },
    {
      "inputs": [],
      "name": "getNumberOfPlayers",
      "outputs": [
        {
          "internalType": "uint256",
          "name": "",
          "type": "uint256"
        }
      ],
      "stateMutability": "view",
      "type": "function"
    },
    {
      "inputs": [
        {
          "internalType": "uint256",
          "name": "index",
          "type": "uint256"
        }
      ],
      "name": "getPlayer",
      "outputs": [
        {
          "internalType": "address",
          "name": "",
          "type": "address"
        }
      ],
      "stateMutability": "view",
      "type": "function"
    },
    {
      "inputs": [],
      "name": "getRaffleState",
      "outputs": [
        {
          "internalType": "enum Raffle.RaffleState",
          "name": "",
          "type": "uint8"
        }
      ],
      "stateMutability": "view",
      "type": "function"
    },
    {
      "inputs": [],
      "name": "getRequestConfirmations",
      "outputs": [
        {
          "internalType": "uint256",
          "name": "",
          "type": "uint256"
        }
      ],
      "stateMutability": "pure",
      "type": "function"
    },
    {
      "inputs": [
        {
          "internalType": "bytes",
          "name": "",
          "type": "bytes"
        }
      ],
      "name": "performUpkeep",
      "outputs": [],
      "stateMutability": "nonpayable",
      "type": "function"
    },
    {
      "inputs": [
        {
          "internalType": "uint256",
          "name": "requestId",
          "type": "uint256"
        },
        {
          "internalType": "uint256[]",
          "name": "randomWords",
          "type": "uint256[]"
        }
      ],
      "name": "rawFulfillRandomWords",
      "outputs": [],
      "stateMutability": "nonpayable",
      "type": "function"
    }
  ],
  "bytecode": "0x6101606040523480156200001257600080fd5b506040516200176738038062001767833981810160405281019062000038919062000294565b858073ffffffffffffffffffffffffffffffffffffffff1660808173ffffffffffffffffffffffffffffffffffffffff1681525050508460a081815250508573ffffffffffffffffffffffffffffffffffffffff1660c08173ffffffffffffffffffffffffffffffffffffffff16815250508360e081815250508267ffffffffffffffff166101008167ffffffffffffffff16815250508163ffffffff166101208163ffffffff16815250506000600160006101000a81548160ff021916908360018111156200010d576200010c62000330565b5b0217905550426002819055508061014081815250505050505050506200035f565b600080fd5b600073ffffffffffffffffffffffffffffffffffffffff82169050919050565b6000620001608262000133565b9050919050565b620001728162000153565b81146200017e57600080fd5b50565b600081519050620001928162000167565b92915050565b6000819050919050565b620001ad8162000198565b8114620001b957600080fd5b50565b600081519050620001cd81620001a2565b92915050565b6000819050919050565b620001e881620001d3565b8114620001f457600080fd5b50565b6000815190506200020881620001dd565b92915050565b600067ffffffffffffffff82169050919050565b6200022d816200020e565b81146200023957600080fd5b50565b6000815190506200024d8162000222565b92915050565b600063ffffffff82169050919050565b6200026e8162000253565b81146200027a57600080fd5b50565b6000815190506200028e8162000263565b92915050565b60008060008060008060c08789031215620002b457620002b36200012e565b5b6000620002c489828a0162000181565b9650506020620002d789828a01620001bc565b9550506040620002ea89828a01620001f7565b9450506060620002fd89828a016200023c565b93505060806200031089828a016200027d565b92505060a06200032389828a01620001bc565b9150509295509295509295565b7f4e487b7100000000000000000000000000000000000000000000000000000000600052602160045260246000fd5b60805160a05160c05160e05161010051610120516101405161139f620003c860003960006107400152600061062901526000610606015260006105e5015260006105a901526000818161027e015261037b0152600081816102bb015261030f015261139f6000f3fe60806040526004361061009c5760003560e01c80634585e33b116100645780634585e33b1461015557806353a2c19a1461017e5780635f1b0fd8146101a95780636e04ff0d146101d4578063e55ae4e814610212578063fd6673f51461024f5761009c565b806309bc33a7146100a1578063115cbaf5146100cc5780631fe543e3146100f75780632cfcc53914610120578063320229eb1461012a575b600080fd5b3480156100ad57600080fd5b506100b661027a565b6040516100c39190610b29565b60405180910390f35b3480156100d857600080fd5b506100e16102a2565b6040516100ee9190610bbb565b60405180910390f35b34801561010357600080fd5b5061011e60048036038101906101199190610d6f565b6102b9565b005b610128610379565b005b34801561013657600080fd5b5061013f6104e8565b60405161014c9190610b29565b60405180910390f35b34801561016157600080fd5b5061017c60048036038101906101779190610e26565b6104f2565b005b34801561018a57600080fd5b506101936106e2565b6040516101a09190610b29565b60405180910390f35b3480156101b557600080fd5b506101be6106f1565b6040516101cb9190610b29565b60405180910390f35b3480156101e057600080fd5b506101fb60048036038101906101f69190610f28565b6106fe565b60405161020992919061100b565b60405180910390f35b34801561021e57600080fd5b506102396004803603810190610234919061103b565b6107e5565b60405161024691906110a9565b60405180910390f35b34801561025b57600080fd5b5061026461082c565b6040516102719190610b29565b60405180910390f35b60007f0000000000000000000000000000000000000000000000000000000000000000905090565b6000600160009054906101000a900460ff16905090565b7f000000000000000000000000000000000000000000000000000000000000000073ffffffffffffffffffffffffffffffffffffffff163373ffffffffffffffffffffffffffffffffffffffff161461036b57337f00000000000000000000000000000000000000000000000000000000000000006040517f1cf993f40000000000000000000000000000000000000000000000000000000081526004016103629291906110c4565b60405180910390fd5b6103758282610838565b5050565b7f00000000000000000000000000000000000000000000000000000000000000003410156103d3576040517f066d781f00000000000000000000000000000000000000000000000000000000815260040160405180910390fd5b600060018111156103e7576103e6610b44565b5b600160009054906101000a900460ff16600181111561040957610408610b44565b5b14610440576040517f1425571c00000000000000000000000000000000000000000000000000000000815260040160405180910390fd5b6000339080600181540180825580915050600190039060005260206000200160009091909190916101000a81548173ffffffffffffffffffffffffffffffffffffffff021916908373ffffffffffffffffffffffffffffffffffffffff1602179055503373ffffffffffffffffffffffffffffffffffffffff167f742d070bf0f3edace132a9da8ba725e8cf99c478869cee7f673ed6085e2f8e6460405160405180910390a2565b6000600254905090565b600061050c604051806020016040528060008152506106fe565b5090508061057b5747600080549050600160009054906101000a900460ff16600181111561053d5761053c610b44565b5b6040517f584327aa000000000000000000000000000000000000000000000000000000008152600401610572939291906110ed565b60405180910390fd5b60018060006101000a81548160ff021916908360018111156105a05761059f610b44565b5b021790555060007f000000000000000000000000000000000000000000000000000000000000000073ffffffffffffffffffffffffffffffffffffffff16635d3b1d307f00000000000000000000000000000000000000000000000000000000000000007f000000000000000000000000000000000000000000000000000000000000000060037f000000000000000000000000000000000000000000000000000000000000000060016040518663ffffffff1660e01b815260040161066a95949392919061119c565b6020604051808303816000875af1158015610689573d6000803e3d6000fd5b505050506040513d601f19601f820116820180604052508101906106ad9190611204565b9050807fde6349b018d6c03d837b67d9a198a6ba4842546f2295fe963fae141e5dbaef8160405160405180910390a250505050565b6000600163ffffffff16905090565b6000600361ffff16905090565b60006060600080600181111561071757610716610b44565b5b600160009054906101000a900460ff16600181111561073957610738610b44565b5b14905060007f00000000000000000000000000000000000000000000000000000000000000006002544261076d9190611260565b1190506000806000805490501190506000804711905083801561078d5750825b80156107965750815b801561079f5750805b9550856040518060400160405280600381526020017f30783000000000000000000000000000000000000000000000000000000000008152509550955050505050915091565b60008082815481106107fa576107f9611294565b5b9060005260206000200160009054906101000a900473ffffffffffffffffffffffffffffffffffffffff169050919050565b60008080549050905090565b600080805490508260008151811061085357610852611294565b5b602002602001015161086591906112f2565b9050600080828154811061087c5761087b611294565b5b9060005260206000200160009054906101000a900473ffffffffffffffffffffffffffffffffffffffff16905080600360006101000a81548173ffffffffffffffffffffffffffffffffffffffff021916908373ffffffffffffffffffffffffffffffffffffffff1602179055506000600160006101000a81548160ff021916908360018111156109105761090f610b44565b5b0217905550600067ffffffffffffffff8111156109305761092f610c2c565b5b60405190808252806020026020018201604052801561095e5781602001602082028036833780820191505090505b5060009080519060200190610974929190610a69565b504260028190555060008173ffffffffffffffffffffffffffffffffffffffff16476040516109a290611354565b60006040518083038185875af1925050503d80600081146109df576040519150601f19603f3d011682016040523d82523d6000602084013e6109e4565b606091505b5050905080610a1f576040517fa1d04b3900000000000000000000000000000000000000000000000000000000815260040160405180910390fd5b8173ffffffffffffffffffffffffffffffffffffffff167f5b690ec4a06fe979403046eaeea5b3ce38524683c3001f662c8b5a829632f7df60405160405180910390a25050505050565b828054828255906000526020600020908101928215610ae2579160200282015b82811115610ae15782518260006101000a81548173ffffffffffffffffffffffffffffffffffffffff021916908373ffffffffffffffffffffffffffffffffffffffff16021790555091602001919060010190610a89565b5b509050610aef9190610af3565b5090565b5b80821115610b0c576000816000905550600101610af4565b5090565b6000819050919050565b610b2381610b10565b82525050565b6000602082019050610b3e6000830184610b1a565b92915050565b7f4e487b7100000000000000000000000000000000000000000000000000000000600052602160045260246000fd5b60028110610b8457610b83610b44565b5b50565b6000819050610b9582610b73565b919050565b6000610ba582610b87565b9050919050565b610bb581610b9a565b82525050565b6000602082019050610bd06000830184610bac565b92915050565b6000604051905090565b600080fd5b600080fd5b610bf381610b10565b8114610bfe57600080fd5b50565b600081359050610c1081610bea565b92915050565b600080fd5b6000601f19601f8301169050919050565b7f4e487b7100000000000000000000000000000000000000000000000000000000600052604160045260246000fd5b610c6482610c1b565b810181811067ffffffffffffffff82111715610c8357610c82610c2c565b5b80604052505050565b6000610c96610bd6565b9050610ca28282610c5b565b919050565b600067ffffffffffffffff821115610cc257610cc1610c2c565b5b602082029050602081019050919050565b600080fd5b6000610ceb610ce684610ca7565b610c8c565b90508083825260208201905060208402830185811115610d0e57610d0d610cd3565b5b835b81811015610d375780610d238882610c01565b845260208401935050602081019050610d10565b5050509392505050565b600082601f830112610d5657610d55610c16565b5b8135610d66848260208601610cd8565b91505092915050565b60008060408385031215610d8657610d85610be0565b5b6000610d9485828601610c01565b925050602083013567ffffffffffffffff811115610db557610db4610be5565b5b610dc185828601610d41565b9150509250929050565b600080fd5b60008083601f840112610de657610de5610c16565b5b8235905067ffffffffffffffff811115610e0357610e02610dcb565b5b602083019150836001820283011115610e1f57610e1e610cd3565b5b9250929050565b60008060208385031215610e3d57610e3c610be0565b5b600083013567ffffffffffffffff811115610e5b57610e5a610be5565b5b610e6785828601610dd0565b92509250509250929050565b600080fd5b600067ffffffffffffffff821115610e9357610e92610c2c565b5b610e9c82610c1b565b9050602081019050919050565b82818337600083830152505050565b6000610ecb610ec684610e78565b610c8c565b905082815260208101848484011115610ee757610ee6610e73565b5b610ef2848285610ea9565b509392505050565b600082601f830112610f0f57610f0e610c16565b5b8135610f1f848260208601610eb8565b91505092915050565b600060208284031215610f3e57610f3d610be0565b5b600082013567ffffffffffffffff811115610f5c57610f5b610be5565b5b610f6884828501610efa565b91505092915050565b60008115159050919050565b610f8681610f71565b82525050565b600081519050919050565b600082825260208201905092915050565b60005b83811015610fc6578082015181840152602081019050610fab565b60008484015250505050565b6000610fdd82610f8c565b610fe78185610f97565b9350610ff7818560208601610fa8565b61100081610c1b565b840191505092915050565b60006040820190506110206000830185610f7d565b81810360208301526110328184610fd2565b90509392505050565b60006020828403121561105157611050610be0565b5b600061105f84828501610c01565b91505092915050565b600073ffffffffffffffffffffffffffffffffffffffff82169050919050565b600061109382611068565b9050919050565b6110a381611088565b82525050565b60006020820190506110be600083018461109a565b92915050565b60006040820190506110d9600083018561109a565b6110e6602083018461109a565b9392505050565b60006060820190506111026000830186610b1a565b61110f6020830185610b1a565b61111c6040830184610b1a565b949350505050565b6000819050919050565b61113781611124565b82525050565b600067ffffffffffffffff82169050919050565b61115a8161113d565b82525050565b600061ffff82169050919050565b61117781611160565b82525050565b600063ffffffff82169050919050565b6111968161117d565b82525050565b600060a0820190506111b1600083018861112e565b6111be6020830187611151565b6111cb604083018661116e565b6111d8606083018561118d565b6111e5608083018461118d565b9695505050505050565b6000815190506111fe81610bea565b92915050565b60006020828403121561121a57611219610be0565b5b6000611228848285016111ef565b91505092915050565b7f4e487b7100000000000000000000000000000000000000000000000000000000600052601160045260246000fd5b600061126b82610b10565b915061127683610b10565b925082820390508181111561128e5761128d611231565b5b92915050565b7f4e487b7100000000000000000000000000000000000000000000000000000000600052603260045260246000fd5b7f4e487b7100000000000000000000000000000000000000000000000000000000600052601260045260246000fd5b60006112fd82610b10565b915061130883610b10565b925082611318576113176112c3565b5b828206905092915050565b600081905092915050565b50565b600061133e600083611323565b91506113498261132e565b600082019050919050565b600061135f82611331565b915081905091905056fea26469706673582212202f9cfa4d666687ed58ead4deee957dda9822d2f764d57b2926d22cd1d4c305bd64736f6c63430008110033",
  "linkReferences": {},
  "deployedLinkReferences": {}
}